{
    "contractName": "SimpleCrowdsale",
    "abi": [
        {
            "inputs": [
                {
                    "internalType": "uint256",
                    "name": "_startTime",
                    "type": "uint256"
                },
                {
                    "internalType": "uint256",
                    "name": "_endTime",
                    "type": "uint256"
                },
                {
                    "internalType": "uint256",
                    "name": "_weiTokenPrice",
                    "type": "uint256"
                },
                {
                    "internalType": "uint256",
                    "name": "_etherInvestmentObjective",
                    "type": "uint256"
                }
            ],
            "stateMutability": "nonpayable",
            "type": "constructor"
        },
        {
            "anonymous": false,
            "inputs": [
                {
                    "indexed": true,
                    "internalType": "address",
                    "name": "_investor",
                    "type": "address"
                },
                {
                    "indexed": false,
                    "internalType": "uint256",
                    "name": "_value",
                    "type": "uint256"
                }
            ],
            "name": "LogInvestment",
            "type": "event"
        },
        {
            "anonymous": false,
            "inputs": [
                {
                    "indexed": true,
                    "internalType": "address",
                    "name": "_investor",
                    "type": "address"
                },
                {
                    "indexed": false,
                    "internalType": "uint256",
                    "name": "_tokens",
                    "type": "uint256"
                }
            ],
            "name": "LogTokenAssignment",
            "type": "event"
        },
        {
            "anonymous": false,
            "inputs": [
                {
                    "indexed": false,
                    "internalType": "address",
                    "name": "investor",
                    "type": "address"
                },
                {
                    "indexed": false,
                    "internalType": "uint256",
                    "name": "value",
                    "type": "uint256"
                }
            ],
            "name": "Refund",
            "type": "event"
        },
        {
            "inputs": [],
            "name": "finalize",
            "outputs": [],
            "stateMutability": "nonpayable",
            "type": "function"
        },
        {
            "inputs": [],
            "name": "invest",
            "outputs": [],
            "stateMutability": "payable",
            "type": "function"
        },
        {
            "inputs": [],
            "name": "refund",
            "outputs": [],
            "stateMutability": "nonpayable",
            "type": "function"
        }
    ],
    "bytecode": "608060405234801561001057600080fd5b50604051610d3d380380610d3d83398101604081905261002f9161010f565b600080546001600160a01b031916331790554284101561004e57600080fd5b8284111561005b57600080fd5b8160000361006857600080fd5b8060000361007557600080fd5b60018490556002839055600382905561009681670de0b6b3a7640000610145565b6004556040516000906100a890610102565b908152602001604051809103906000f0801580156100ca573d6000803e3d6000fd5b50600880546001600160b01b031916620100006001600160a01b03939093169290920261ffff19169190911790555061017092505050565b6107f58061054883390190565b6000806000806080858703121561012557600080fd5b505082516020840151604085015160609095015191969095509092509050565b808202811582820484141761016a57634e487b7160e01b600052601160045260246000fd5b92915050565b6103c98061017f6000396000f3fe6080604052600436106100345760003560e01c80634bb278f314610039578063590e1ae314610050578063e8b5e51f14610065575b600080fd5b34801561004557600080fd5b5061004e61006d565b005b34801561005c57600080fd5b5061004e61011c565b61004e6101fc565b60085460ff161561007d57600080fd5b600454600654600191111580156100fb57600860029054906101000a90046001600160a01b03166001600160a01b03166386d1a69f6040518163ffffffff1660e01b8152600401600060405180830381600087803b1580156100de57600080fd5b505af11580156100f2573d6000803e3d6000fd5b5050505061010b565b6008805461ff0019166101001790555b6008805460ff191660011790555050565b600854610100900460ff1661013057600080fd5b336000818152600560205260408120549081900361014d57600080fd5b6001600160a01b03821660009081526005602052604081208190556007805483929061017a908490610350565b90915550506040516001600160a01b0383169082156108fc029083906000818181858888f193505050501580156101b5573d6000803e3d6000fd5b50604080516001600160a01b0384168152602081018390527fbb28353e4598c3b9199101a66e0989549b659a59a54d2c27fbb183f1932c8e6d910160405180910390a15050565b6102053461029f565b61020e57600080fd5b3360008181526005602052604081208054349283929161022f908490610350565b9250508190555080600660008282546102489190610350565b90915550610258905082826102ba565b816001600160a01b03167fc74590e3281392e897f5c0f45530951cfe0db0e86c76d65af861e80b925871a48260405161029391815260200190565b60405180910390a25050565b6000811580159060019082906102b25750805b949350505050565b60006102c58261033a565b6008546040516340c10f1960e01b81526001600160a01b0386811660048301526024820184905292935062010000909104909116906340c10f1990604401600060405180830381600087803b15801561031d57600080fd5b505af1158015610331573d6000803e3d6000fd5b50505050505050565b60006003548261034a9190610371565b92915050565b8082018082111561034a57634e487b7160e01b600052601160045260246000fd5b60008261038e57634e487b7160e01b600052601260045260246000fd5b50049056fea26469706673582212200db1b2ce4eb1f03b34c60f424d6d55c5f2d083e6138f3b05cf2f0e7a6728b5ff64736f6c6343000811003360806040526004805460ff1916905534801561001a57600080fd5b506040516107f53803806107f583398101604081905261003991610147565b600080546001600160a01b03191633908117909155819061005a9082610061565b5050610187565b6000546001600160a01b031633146100d25760405162461bcd60e51b815260206004820152602a60248201527f4f6e6c7920636f6e7472616374206f776e65722063616e2063616c6c207468696044820152693990333ab731ba34b7b760b11b606482015260840160405180910390fd5b6001600160a01b038216600090815260016020526040812080548392906100fa908490610160565b90915550506000546040518281526001600160a01b038481169216907fddf252ad1be2c89b69c2b068fc378daa952ba7f163c4a11628f55a4df523b3ef9060200160405180910390a35050565b60006020828403121561015957600080fd5b5051919050565b8082018082111561018157634e487b7160e01b600052601160045260246000fd5b92915050565b61065f806101966000396000f3fe608060405234801561001057600080fd5b50600436106100625760003560e01c806323b872dd1461006757806340c10f191461007c57806386d1a69f1461008f578063a9059cbb14610097578063c1dbd9b2146100aa578063e724529c146100e2575b600080fd5b61007a6100753660046104fb565b6100f5565b005b61007a61008a366004610537565b610114565b61007a6101bd565b61007a6100a5366004610537565b6101f6565b61007a6100b8366004610537565b3360009081526002602090815260408083206001600160a01b039590951683529390529190912055565b61007a6100f0366004610561565b610213565b60045460ff1661010457600080fd5b61010f8383836102a0565b505050565b6000546001600160a01b031633146101475760405162461bcd60e51b815260040161013e9061059d565b60405180910390fd5b6001600160a01b0382166000908152600160205260408120805483929061016f9084906105fd565b90915550506000546040518281526001600160a01b038481169216907fddf252ad1be2c89b69c2b068fc378daa952ba7f163c4a11628f55a4df523b3ef906020015b60405180910390a35050565b6000546001600160a01b031633146101e75760405162461bcd60e51b815260040161013e9061059d565b6004805460ff19166001179055565b60045460ff1661020557600080fd5b61020f8282610408565b5050565b6000546001600160a01b0316331461023d5760405162461bcd60e51b815260040161013e9061059d565b6001600160a01b038216600081815260036020908152604091829020805460ff19168515159081179091558251938452908301527f67a17b8db8ff8fa7cff69c2328bf8a35f9be2c88abeea30be900fc28eece28ed910160405180910390a15050565b6001600160a01b03831660009081526001602052604090205481106102c457600080fd5b6001600160a01b0382166000908152600160205260409020546102e782826105fd565b10156102f257600080fd5b6001600160a01b038316600090815260026020908152604080832033845290915290205481111561032257600080fd5b6001600160a01b0383166000908152600160205260408120805483929061034a908490610616565b90915550506001600160a01b038216600090815260016020526040812080548392906103779084906105fd565b90915550506001600160a01b0383166000908152600260209081526040808320338452909152812080548392906103af908490610616565b92505081905550816001600160a01b0316836001600160a01b03167fddf252ad1be2c89b69c2b068fc378daa952ba7f163c4a11628f55a4df523b3ef836040516103fb91815260200190565b60405180910390a3505050565b33600090815260016020526040902054811061042357600080fd5b6001600160a01b03821660009081526001602052604090205461044682826105fd565b101561045157600080fd5b3360009081526001602052604081208054839290610470908490610616565b90915550506001600160a01b0382166000908152600160205260408120805483929061049d9084906105fd565b90915550506040518181526001600160a01b0383169033907fddf252ad1be2c89b69c2b068fc378daa952ba7f163c4a11628f55a4df523b3ef906020016101b1565b80356001600160a01b03811681146104f657600080fd5b919050565b60008060006060848603121561051057600080fd5b610519846104df565b9250610527602085016104df565b9150604084013590509250925092565b6000806040838503121561054a57600080fd5b610553836104df565b946020939093013593505050565b6000806040838503121561057457600080fd5b61057d836104df565b91506020830135801515811461059257600080fd5b809150509250929050565b6020808252602a908201527f4f6e6c7920636f6e7472616374206f776e65722063616e2063616c6c207468696040820152693990333ab731ba34b7b760b11b606082015260800190565b634e487b7160e01b600052601160045260246000fd5b80820180821115610610576106106105e7565b92915050565b81810381811115610610576106106105e756fea2646970667358221220d95f98d1fa94a9e51d2dbaf2db7a4f7aaeb12ef7ea0c16de1d2f40ac0b8cb5fa64736f6c63430008110033",
    "sourcePath": "/Users/kovalchu/Documents/home/Solidity/Crowdsale/contracts/Crowdsale/SimpleCrowdsale.sol",
    "compiler": {
        "name": "solc",
        "version": "0.8.17+commit.8df45f5f"
    },
    "functionHashes": {
        "finalize()": "4bb278f3",
        "invest()": "e8b5e51f",
        "refund()": "590e1ae3"
    },
    "gasEstimates": {
        "creation": {
            "codeDepositCost": "193800",
            "executionCost": "infinite",
            "totalCost": "infinite"
        },
        "external": {
            "finalize()": "infinite",
            "invest()": "infinite",
            "refund()": "infinite"
        },
        "internal": {
            "assignTokens(address,uint256)": "infinite",
            "calculateNumberOfTokens(uint256)": "2188",
            "isValidInvestment(uint256)": "72"
        }
    }
}