{
    "contractName": "ReleasableSimpleCoin",
    "abi": [
        {
            "inputs": [
                {
                    "internalType": "uint256",
                    "name": "_initialSupply",
                    "type": "uint256"
                }
            ],
            "stateMutability": "nonpayable",
            "type": "constructor"
        },
        {
            "anonymous": false,
            "inputs": [
                {
                    "indexed": false,
                    "internalType": "address",
                    "name": "_target",
                    "type": "address"
                },
                {
                    "indexed": false,
                    "internalType": "bool",
                    "name": "_frozen",
                    "type": "bool"
                }
            ],
            "name": "FrozenAccount",
            "type": "event"
        },
        {
            "anonymous": false,
            "inputs": [
                {
                    "indexed": true,
                    "internalType": "address",
                    "name": "_from",
                    "type": "address"
                },
                {
                    "indexed": true,
                    "internalType": "address",
                    "name": "_to",
                    "type": "address"
                },
                {
                    "indexed": false,
                    "internalType": "uint256",
                    "name": "_value",
                    "type": "uint256"
                }
            ],
            "name": "Transfer",
            "type": "event"
        },
        {
            "inputs": [
                {
                    "internalType": "address",
                    "name": "_authorizedAccount",
                    "type": "address"
                },
                {
                    "internalType": "uint256",
                    "name": "_allowance",
                    "type": "uint256"
                }
            ],
            "name": "authorize",
            "outputs": [],
            "stateMutability": "nonpayable",
            "type": "function"
        },
        {
            "inputs": [
                {
                    "internalType": "address",
                    "name": "_target",
                    "type": "address"
                },
                {
                    "internalType": "bool",
                    "name": "_freeze",
                    "type": "bool"
                }
            ],
            "name": "freezeAccount",
            "outputs": [],
            "stateMutability": "nonpayable",
            "type": "function"
        },
        {
            "inputs": [
                {
                    "internalType": "address",
                    "name": "_recipient",
                    "type": "address"
                },
                {
                    "internalType": "uint256",
                    "name": "_mintedAmount",
                    "type": "uint256"
                }
            ],
            "name": "mint",
            "outputs": [],
            "stateMutability": "nonpayable",
            "type": "function"
        },
        {
            "inputs": [],
            "name": "release",
            "outputs": [],
            "stateMutability": "nonpayable",
            "type": "function"
        },
        {
            "inputs": [
                {
                    "internalType": "address",
                    "name": "_to",
                    "type": "address"
                },
                {
                    "internalType": "uint256",
                    "name": "_amount",
                    "type": "uint256"
                }
            ],
            "name": "transfer",
            "outputs": [],
            "stateMutability": "nonpayable",
            "type": "function"
        },
        {
            "inputs": [
                {
                    "internalType": "address",
                    "name": "_from",
                    "type": "address"
                },
                {
                    "internalType": "address",
                    "name": "_to",
                    "type": "address"
                },
                {
                    "internalType": "uint256",
                    "name": "_amount",
                    "type": "uint256"
                }
            ],
            "name": "transferFrom",
            "outputs": [],
            "stateMutability": "nonpayable",
            "type": "function"
        }
    ],
    "bytecode": "60806040526004805460ff1916905534801561001a57600080fd5b506040516107f53803806107f583398101604081905261003991610147565b600080546001600160a01b03191633908117909155819061005a9082610061565b5050610187565b6000546001600160a01b031633146100d25760405162461bcd60e51b815260206004820152602a60248201527f4f6e6c7920636f6e7472616374206f776e65722063616e2063616c6c207468696044820152693990333ab731ba34b7b760b11b606482015260840160405180910390fd5b6001600160a01b038216600090815260016020526040812080548392906100fa908490610160565b90915550506000546040518281526001600160a01b038481169216907fddf252ad1be2c89b69c2b068fc378daa952ba7f163c4a11628f55a4df523b3ef9060200160405180910390a35050565b60006020828403121561015957600080fd5b5051919050565b8082018082111561018157634e487b7160e01b600052601160045260246000fd5b92915050565b61065f806101966000396000f3fe608060405234801561001057600080fd5b50600436106100625760003560e01c806323b872dd1461006757806340c10f191461007c57806386d1a69f1461008f578063a9059cbb14610097578063c1dbd9b2146100aa578063e724529c146100e2575b600080fd5b61007a6100753660046104fb565b6100f5565b005b61007a61008a366004610537565b610114565b61007a6101bd565b61007a6100a5366004610537565b6101f6565b61007a6100b8366004610537565b3360009081526002602090815260408083206001600160a01b039590951683529390529190912055565b61007a6100f0366004610561565b610213565b60045460ff1661010457600080fd5b61010f8383836102a0565b505050565b6000546001600160a01b031633146101475760405162461bcd60e51b815260040161013e9061059d565b60405180910390fd5b6001600160a01b0382166000908152600160205260408120805483929061016f9084906105fd565b90915550506000546040518281526001600160a01b038481169216907fddf252ad1be2c89b69c2b068fc378daa952ba7f163c4a11628f55a4df523b3ef906020015b60405180910390a35050565b6000546001600160a01b031633146101e75760405162461bcd60e51b815260040161013e9061059d565b6004805460ff19166001179055565b60045460ff1661020557600080fd5b61020f8282610408565b5050565b6000546001600160a01b0316331461023d5760405162461bcd60e51b815260040161013e9061059d565b6001600160a01b038216600081815260036020908152604091829020805460ff19168515159081179091558251938452908301527f67a17b8db8ff8fa7cff69c2328bf8a35f9be2c88abeea30be900fc28eece28ed910160405180910390a15050565b6001600160a01b03831660009081526001602052604090205481106102c457600080fd5b6001600160a01b0382166000908152600160205260409020546102e782826105fd565b10156102f257600080fd5b6001600160a01b038316600090815260026020908152604080832033845290915290205481111561032257600080fd5b6001600160a01b0383166000908152600160205260408120805483929061034a908490610616565b90915550506001600160a01b038216600090815260016020526040812080548392906103779084906105fd565b90915550506001600160a01b0383166000908152600260209081526040808320338452909152812080548392906103af908490610616565b92505081905550816001600160a01b0316836001600160a01b03167fddf252ad1be2c89b69c2b068fc378daa952ba7f163c4a11628f55a4df523b3ef836040516103fb91815260200190565b60405180910390a3505050565b33600090815260016020526040902054811061042357600080fd5b6001600160a01b03821660009081526001602052604090205461044682826105fd565b101561045157600080fd5b3360009081526001602052604081208054839290610470908490610616565b90915550506001600160a01b0382166000908152600160205260408120805483929061049d9084906105fd565b90915550506040518181526001600160a01b0383169033907fddf252ad1be2c89b69c2b068fc378daa952ba7f163c4a11628f55a4df523b3ef906020016101b1565b80356001600160a01b03811681146104f657600080fd5b919050565b60008060006060848603121561051057600080fd5b610519846104df565b9250610527602085016104df565b9150604084013590509250925092565b6000806040838503121561054a57600080fd5b610553836104df565b946020939093013593505050565b6000806040838503121561057457600080fd5b61057d836104df565b91506020830135801515811461059257600080fd5b809150509250929050565b6020808252602a908201527f4f6e6c7920636f6e7472616374206f776e65722063616e2063616c6c207468696040820152693990333ab731ba34b7b760b11b606082015260800190565b634e487b7160e01b600052601160045260246000fd5b80820180821115610610576106106105e7565b92915050565b81810381811115610610576106106105e756fea264697066735822122004fd27fcce2a75d17818957eeb76af90219a87e6ddaac27bed342a2e0494a08b64736f6c63430008110033",
    "sourcePath": "/Users/kovalchu/Documents/home/Solidity/Crowdsale/contracts/ReleasableSimpleCoin.sol",
    "compiler": {
        "name": "solc",
        "version": "0.8.17+commit.8df45f5f"
    },
    "functionHashes": {
        "authorize(address,uint256)": "c1dbd9b2",
        "freezeAccount(address,bool)": "e724529c",
        "mint(address,uint256)": "40c10f19",
        "release()": "86d1a69f",
        "transfer(address,uint256)": "a9059cbb",
        "transferFrom(address,address,uint256)": "23b872dd"
    },
    "gasEstimates": {
        "creation": {
            "codeDepositCost": "326200",
            "executionCost": "infinite",
            "totalCost": "infinite"
        },
        "external": {
            "authorize(address,uint256)": "22650",
            "freezeAccount(address,bool)": "28257",
            "mint(address,uint256)": "30801",
            "release()": "26530",
            "transfer(address,uint256)": "infinite",
            "transferFrom(address,address,uint256)": "infinite"
        }
    }
}