{
    "contractName": "SimpleCrowdsale",
    "abi": [
        {
            "inputs": [
                {
                    "internalType": "uint256",
                    "name": "_startTime",
                    "type": "uint256"
                },
                {
                    "internalType": "uint256",
                    "name": "_endTime",
                    "type": "uint256"
                },
                {
                    "internalType": "uint256",
                    "name": "_tokenPrice",
                    "type": "uint256"
                },
                {
                    "internalType": "uint256",
                    "name": "_investmentObjective",
                    "type": "uint256"
                }
            ],
            "stateMutability": "nonpayable",
            "type": "constructor"
        },
        {
            "anonymous": false,
            "inputs": [
                {
                    "indexed": true,
                    "internalType": "address",
                    "name": "_investor",
                    "type": "address"
                },
                {
                    "indexed": false,
                    "internalType": "uint256",
                    "name": "_value",
                    "type": "uint256"
                }
            ],
            "name": "LogInvestment",
            "type": "event"
        },
        {
            "anonymous": false,
            "inputs": [
                {
                    "indexed": true,
                    "internalType": "address",
                    "name": "_investor",
                    "type": "address"
                },
                {
                    "indexed": false,
                    "internalType": "uint256",
                    "name": "_tokens",
                    "type": "uint256"
                }
            ],
            "name": "LogTokenAssignment",
            "type": "event"
        },
        {
            "inputs": [],
            "name": "finalize",
            "outputs": [],
            "stateMutability": "nonpayable",
            "type": "function"
        },
        {
            "inputs": [],
            "name": "invest",
            "outputs": [],
            "stateMutability": "payable",
            "type": "function"
        },
        {
            "inputs": [],
            "name": "refund",
            "outputs": [],
            "stateMutability": "nonpayable",
            "type": "function"
        }
    ],
    "bytecode": "608060405234801561001057600080fd5b50604051610ad3380380610ad383398101604081905261002f916100ff565b600080546001600160a01b031916331790554284101561004e57600080fd5b8284111561005b57600080fd5b8160000361006857600080fd5b8060000361007557600080fd5b6001849055600283905560038290556004819055604051600090610098906100f2565b908152602001604051809103906000f0801580156100ba573d6000803e3d6000fd5b50600880546001600160b01b031916620100006001600160a01b03939093169290920261ffff19169190911790555061013592505050565b6107608061037383390190565b6000806000806080858703121561011557600080fd5b505082516020840151604085015160609095015191969095509092509050565b61022f806101446000396000f3fe6080604052600436106100345760003560e01c80634bb278f314610039578063590e1ae314610039578063e8b5e51f14610049575b600080fd5b34801561004557600080fd5b505b005b610047610055346100ef565b61005e57600080fd5b3360008181526005602052604081208054349283929161007f9084906101b6565b92505081905550806006600082825461009891906101b6565b909155506100a890508282610120565b816001600160a01b03167fc74590e3281392e897f5c0f45530951cfe0db0e86c76d65af861e80b925871a4826040516100e391815260200190565b60405180910390a25050565b600154600090821515908290421080159061010c57506002544211155b90508180156101185750805b949350505050565b600061012b826101a0565b6008546040516340c10f1960e01b81526001600160a01b0386811660048301526024820184905292935062010000909104909116906340c10f1990604401600060405180830381600087803b15801561018357600080fd5b505af1158015610197573d6000803e3d6000fd5b50505050505050565b6000600354826101b091906101d7565b92915050565b808201808211156101b057634e487b7160e01b600052601160045260246000fd5b6000826101f457634e487b7160e01b600052601260045260246000fd5b50049056fea26469706673582212205de56b945407256af0d0a1aa68852fc8e38b7dcde40bba2a54516f2a220571af64736f6c63430008110033608060405234801561001057600080fd5b5060405161076038038061076083398101604081905261002f9161013a565b600080546001600160a01b0319163390811790915561004e9082610054565b5061017a565b6000546001600160a01b031633146100c55760405162461bcd60e51b815260206004820152602a60248201527f4f6e6c7920636f6e7472616374206f776e65722063616e2063616c6c207468696044820152693990333ab731ba34b7b760b11b606482015260840160405180910390fd5b6001600160a01b038216600090815260016020526040812080548392906100ed908490610153565b90915550506000546040518281526001600160a01b038481169216907fddf252ad1be2c89b69c2b068fc378daa952ba7f163c4a11628f55a4df523b3ef9060200160405180910390a35050565b60006020828403121561014c57600080fd5b5051919050565b8082018082111561017457634e487b7160e01b600052601160045260246000fd5b92915050565b6105d7806101896000396000f3fe608060405234801561001057600080fd5b50600436106100575760003560e01c806323b872dd1461005c57806340c10f1914610071578063a9059cbb14610084578063c1dbd9b214610097578063e724529c146100cf575b600080fd5b61006f61006a366004610473565b6100e2565b005b61006f61007f3660046104af565b61024a565b61006f6100923660046104af565b6102f3565b61006f6100a53660046104af565b3360009081526002602090815260408083206001600160a01b039590951683529390529190912055565b61006f6100dd3660046104d9565b6103ca565b6001600160a01b038316600090815260016020526040902054811061010657600080fd5b6001600160a01b038216600090815260016020526040902054610129828261052b565b101561013457600080fd5b6001600160a01b038316600090815260026020908152604080832033845290915290205481111561016457600080fd5b6001600160a01b0383166000908152600160205260408120805483929061018c908490610544565b90915550506001600160a01b038216600090815260016020526040812080548392906101b990849061052b565b90915550506001600160a01b0383166000908152600260209081526040808320338452909152812080548392906101f1908490610544565b92505081905550816001600160a01b0316836001600160a01b03167fddf252ad1be2c89b69c2b068fc378daa952ba7f163c4a11628f55a4df523b3ef8360405161023d91815260200190565b60405180910390a3505050565b6000546001600160a01b0316331461027d5760405162461bcd60e51b815260040161027490610557565b60405180910390fd5b6001600160a01b038216600090815260016020526040812080548392906102a590849061052b565b90915550506000546040518281526001600160a01b038481169216907fddf252ad1be2c89b69c2b068fc378daa952ba7f163c4a11628f55a4df523b3ef906020015b60405180910390a35050565b33600090815260016020526040902054811061030e57600080fd5b6001600160a01b038216600090815260016020526040902054610331828261052b565b101561033c57600080fd5b336000908152600160205260408120805483929061035b908490610544565b90915550506001600160a01b0382166000908152600160205260408120805483929061038890849061052b565b90915550506040518181526001600160a01b0383169033907fddf252ad1be2c89b69c2b068fc378daa952ba7f163c4a11628f55a4df523b3ef906020016102e7565b6000546001600160a01b031633146103f45760405162461bcd60e51b815260040161027490610557565b6001600160a01b038216600081815260036020908152604091829020805460ff19168515159081179091558251938452908301527f67a17b8db8ff8fa7cff69c2328bf8a35f9be2c88abeea30be900fc28eece28ed910160405180910390a15050565b80356001600160a01b038116811461046e57600080fd5b919050565b60008060006060848603121561048857600080fd5b61049184610457565b925061049f60208501610457565b9150604084013590509250925092565b600080604083850312156104c257600080fd5b6104cb83610457565b946020939093013593505050565b600080604083850312156104ec57600080fd5b6104f583610457565b91506020830135801515811461050a57600080fd5b809150509250929050565b634e487b7160e01b600052601160045260246000fd5b8082018082111561053e5761053e610515565b92915050565b8181038181111561053e5761053e610515565b6020808252602a908201527f4f6e6c7920636f6e7472616374206f776e65722063616e2063616c6c207468696040820152693990333ab731ba34b7b760b11b60608201526080019056fea26469706673582212205828147fe814f1f94b0cf16eaebd4fb954f773246518cd0dadec130c1434f52f64736f6c63430008110033",
    "sourcePath": "/Users/kovalchu/Documents/home/Solidity/Crowdsale/contracts/SimpleCrowdsale.sol",
    "compiler": {
        "name": "solc",
        "version": "0.8.17+commit.8df45f5f"
    },
    "functionHashes": {
        "finalize()": "4bb278f3",
        "invest()": "e8b5e51f",
        "refund()": "590e1ae3"
    },
    "gasEstimates": {
        "creation": {
            "codeDepositCost": "111800",
            "executionCost": "infinite",
            "totalCost": "infinite"
        },
        "external": {
            "finalize()": "101",
            "invest()": "infinite",
            "refund()": "123"
        },
        "internal": {
            "assignTokens(address,uint256)": "infinite",
            "calculateNumberOfTokens(uint256)": "2188",
            "isValidInvestment(uint256)": "4324"
        }
    }
}